:0400000007EF00F016
:0A0008005F820FED0DF0CCEF0FF05A
:1010000000313A53544152542031313A33313A3459
:101010003500323A4C4F4753202032322F30322F96
:10102000313700313A444F574E4C4F414420333A08
:1010300045534300313A5343524F4C4C444E2033B6
:101040003A455343005452414E5346455252494E3D
:10105000472E2E2E00323A44495350204C4F4753CE
:1010600000534F5254494E472E2E2E00323A5343CE
:0D107000524F4C4C555000303A34370000C0
:10107E000E0E47184810D8A405D049C0A4F04AC097
:10108E00A5F01DD00F0E47184810D8A405D04BC0A0
:10109E00A4F04CC0A5F013D0100E47184810D8A4D9
:1010AE0005D05BC0A4F05CC0A5F009D0110E4718A6
:1010BE004810D8A404D05DC0A4F05EC0A5F0000115
:1010CE00A4510001A511D8B412005A0E0001A419A2
:1010DE000001A511D8A452D0000E0001966F5A0E31
:1010EE00956F010E0001986F680E976F000E00014C
:1010FE009A6F090E996F6AEC0BF00E0E4924216E51
:10110E00010E4A20226E010E246E680E236EEAEC4A
:10111E000DF021C049F022C04AF00E0E4B24216E74
:10112E00010E4C20226E010E246E680E236EEAEC28
:10113E000DF021C04BF022C04CF00E0E5B24216E40
:10114E00010E5C20226E010E246E680E236EEAECF8
:10115E000DF021C05BF022C05CF00E0E5D24216EFE
:10116E00010E5E20226E010E246E680E236EEAECD6
:10117E000DF021C05DF022C05EF01200B40E000131
:10118E00A4190001A511D8A452D0000E0001966F2B
:10119E00B40E956F010E0001986F680E976F000EDA
:1011AE0000019A6F090E996F6AEC0BF0B40E492488
:1011BE00216E000E4A20226E010E246E680E236EE2
:1011CE00EAEC0DF021C049F022C04AF0B40E4B24D7
:1011DE00216E000E4C20226E010E246E680E236EC0
:1011EE00EAEC0DF021C04BF022C04CF0B40E5B24A3
:1011FE00216E000E5C20226E010E246E680E236E90
:10120E00EAEC0DF021C05BF022C05CF0B40E5D2460
:10121E00216E000E5E20226E010E246E680E236E6D
:10122E00EAEC0DF021C05DF022C05EF012000E0E51
:10123E000001A41956E10001A505D8A41200000E64
:10124E000001966F5A0E956F010E0001986F680E91
:10125E00976F000E00019A6F080E996F6AEC0BF0F3
:10126E005A0E4924216E000E4A20226E010E246E63
:10127E00680E236EEAEC0DF021C049F022C04AF050
:10128E005A0E4B24216E000E4C20226E010E246E3F
:10129E00680E236EEAEC0DF021C04BF022C04CF02C
:1012AE005A0E5B24216E000E5C20226E010E246EFF
:1012BE00680E236EEAEC0DF021C05BF022C05CF0EC
:1012CE005A0E5D24216E000E5E20226E010E246EDB
:1012DE00680E236EEAEC0DF021C05DF022C05EF0C8
:1012EE0012001200000E926E000E946E000E956E9D
:1012FE00000E966E9368000E896E000E8A6E000EBA
:10130E008B6E070E8D6EC1683EEC0FF0F086F28E7E
:10131E00000E466E030E456E000E4E6E010E4D6EA5
:10132E00D9EC0FF0000E506E000E4F6E000E546E84
:10133E00000E536E000E526E000E516E000E5A6E5F
:10134E00000E596E000E586E000E576E000E566E41
:10135E00000E556E010E4C6E0E0E4B6E000E4A6E4A
:10136E00000E496E000E5E6EB40E5D6E000E5C6E6B
:10137E005A0E5B6E000E226E0B0E216EA8EC0DF057
:10138E00000E226E0A0E216E5DEC10F0D58CD59AF1
:10139E00D596D584D582D580D58E8B800D0E000145
:1013AE00A76FAF0E0001A66FB60EE82EFED7A62FC2
:1013BE00FCD7A72FFAD700F08B900D0E0001A76F68
:1013CE00AF0E0001A66FB60EE82EFED7A62FFCD7E5
:1013DE00A72FFAD700F0E1D7F29EF28E020E4D182B
:1013EE004E10D8A4F9D7000E226E0B0E216EA8EC6B
:1013FE000DF0000E226E0C0E216EBEEC0FF0000EE4
:10140E00226E0C0E216E3FEC10F07DEC0FF023508F
:10141E002410D8B41FD0000E226E090E216E58EC87
:10142E000EF04F4A502A000E226E0A0E216EA8ECC4
:10143E000DF05CEC0CF03FEC08F0000E226E0B0E83
:10144E00216E5DEC10F0000E226E0A0E216E5DEC28
:10145E0010F0C2D7000E226E080E216E58EC0EF060
:10146E00BBD788C08AF000018B6B8C6B000187356F
:10147E0000018A3701E38B8100018A510001946FCC
:10148E0000019451D8A40AD0000E0001866F000E00
:10149E00876F000E886F000E896F1200170E000105
:1014AE008A6F86C08BF087C08CF088C08DF00001EB
:1014BE008A2900018E6F05D00001D8908D338C33B0
:1014CE008B3300018E2FF8D700018B5100018F6FE7
:1014DE000001878FFF0E00018617FF0E0001871790
:1014EE00000E00018817000186510001906F000167
:1014FE0087510001916F000188510001926F000128
:10150E00936B8E0E0001945F000194AF1AD0000110
:10151E009451800A8F0FD8B00AD0000E0001866F4A
:10152E00000E876F000E886F000E896F120000018B
:10153E00D89093339233913390330001943FF7D781
:10154E001BD0170E0001946512D0000E0001866F9D
:10155E00000E876F000E886F000E896F120000015B
:10156E00D890903791379237933700019407000146
:10157E0094510001D8A4F3D700018F510001D8B4C3
:10158E0009D00001931F921F911F906D000E9123A1
:10159E009223932390C086F091C087F092C088F07A
:1015AE0093C089F012003EC042F0436A446A3D3453
:1015BE00423601E3438042500001806F00018051AA
:1015CE00D8A407D0000E3C6E000E3D6E000E3E6E8F
:1015DE00120041C042F0436A446A4034423601E38D
:1015EE00438042500001856F00018551D8A407D079
:1015FE00000E3C6E000E3D6E000E3E6E120000019F
:10160E0085517B0F000180273EC085F041500001BF
:10161E00851B800E000185173D8E408EFF0E3F16F6
:10162E00FF0E4016000E4116000E0001816F000ED7
:10163E000001826F000E0001836F070E0001846FA0
:10164E003CA009D03F500001812740500001822369
:10165E00415000018323D8903E323D323C32D89027
:10166E003F36403641360001842FEAD7090E00017D
:10167E00846F3CA009D03F500001812740500001EB
:10168E008223415000018323D8903E323D323C32BA
:10169E000001D8908333823381330001842FE9D740
:1016AE0081C021F082C022F083C023F080C024F0DC
:1016BE0085C025F0B8EC0CF021C03CF022C03DF006
:1016CE0023C03EF01200000E3F6E800E406E450E9F
:1016DE00416E000E306EB40E316E430E326E95C0FA
:1016EE0029F096C02AF061EC0FF029C02DF02AC027
:1016FE002EF02BC02FF0E9EC0BF02DC03CF02EC0DD
:10170E003DF02FC03EF0DAEC0AF03CC086F03DC052
:10171E0087F03EC088F038EC0AF086C0A0F087C093
:10172E00A1F0000E2D6EB40E2E6E430E2F6E97C0CE
:10173E009BF098C09CF00C0ED89000019B379C3704
:10174E00E82EFAD79BC029F09CC02AF061EC0FF06E
:10175E0029C030F02AC031F02BC032F0E9EC0BF08A
:10176E002DC09DF02EC09EF02FC09FF0080E0001E0
:10177E00991900019A11D8A402D08B9007D0090EA6
:10178E000001991900019A11D8B48B80000E000146
:10179E00A36F000EA26F05D08B828B920001A24B1D
:1017AE00A32B0001A0510001A25D0001A351800AEC
:1017BE0000019B6F0001A151800A00019B59D8B016
:1017CE001200EAD72FC033F0346A356A2E3433361E
:1017DE0001E3348033503A6E3A50D8A407D0000E4D
:1017EE002D6E000E2E6E000E2F6E120032C033F0D4
:1017FE00346A356A3134333601E3348033503B6E0C
:10180E003B50D8A407D0000E2D6E000E2E6E000E8B
:10181E002F6E1200000E376E000E386E000E396EEF
:10182E003B50890F3A5E2FC03BF032503B1A800E70
:10183E003B162E8EFF0E2D16FF0E2E16000E2F1699
:10184E00318EFF0E3016FF0E3116000E3216180EA8
:10185E00366ED89037363836393630502D5C31509A
:10186E002E5832502F58D8A007D030502D5E315000
:10187E002E5A32502F5A3780D8902D362E362F367C
:10188E00362EE7D737C021F038C022F039C023F00A
:10189E003AC024F03BC025F0B8EC0CF021C02DF07E
:1018AE0022C02EF023C02FF01200000E276E000E65
:1018BE00266E27EC10F021C024F022C025F0000E79
:1018CE00226E130E216E22EC0EF022BE05D0225097
:1018DE0010E12104D8B00DD0000E226E140E216E30
:1018EE0022EC0EF022BE09D0225003E12104D8A032
:1018FE0004D0000E276E010E266E24502510D8B48B
:10190E0009D026502710D8B405D0000E486E0F0E01
:10191E00476E120024502510D8B409D02650271037
:10192E00D8A405D0000E486E0E0E476E120024503D
:10193E002510D8A409D026502710D8B405D0000EF3
:10194E00486E110E476E120024502510D8A41200B6
:10195E0026502710D8A41200000E486E100E476EA7
:10196E0012002450D8B405D0215022102310D8A430
:10197E000CD0000E216E000E226E000E236E120091
:10198E00242AD890233222322132000E2114266EC0
:10199E00000E2214276EFE0E2314286E26502710DA
:1019AE002810D8B40CD0ECD7242A010E2126000E14
:1019BE002222000E2322D890233222322132000E10
:1019CE002114266E000E2214276EFF0E2314286E8D
:1019DE00265027102810D8B406D0E6D72406D89063
:1019EE0021362236233622BE03D0020E2460F6D7CD
:1019FE0024A0229ED8902432245023122550D8A4FD
:101A0E00238E21C021F022C022F023C023F0120029
:101A1E000600FACF11F0FBCF12F0E9CF13F0EACFA8
:101A2E0014F0E1CF15F0E2CF16F0D9CF17F0DACFE0
:101A3E0018F0F3CF19F0F4CF1AF0F6CF1BF0F7CF62
:101A4E001CF0F8CF1DF0F5CF1EF0F0A011D081CF15
:101A5E0010F0103A0F0E10160F0E101610501F6EBB
:101A6E00206A1FC00EF020C00FF05DEC0DF0F0905C
:101A7E001EC0F5FF1DC0F8FF1CC0F7FF1BC0F6FF10
:101A8E001AC0F4FF19C0F3FF18C0DAFF17C0D9FF50
:101A9E0016C0E2FF15C0E1FF14C0EAFF13C0E9FF54
:101AAE0012C0FBFF11C0FAFF5F921100020E0E185A
:101ABE000F10D8A40CD0020E4D184E10D8B407D06B
:101ACE00E6EC0FF0000E466E030E456E1200030E8E
:101ADE0045184610D8A41AD00E500F10D8A40BD00B
:101AEE00000E4E6E020E4D6EF3EC0FF0000E466EB3
:101AFE00040E456E12000E040F10D8A4120000EC56
:101B0E0010F0000E466E050E456E1200050E4518BD
:101B1E004610D8A412000E500F10D8A407D01AECFD
:101B2E0010F0000E466E070E456E12000E040F10DA
:101B3E00D8A412000DEC10F0000E466E060E456E87
:101B4E0012000B0E21182210D8A41BD0000E256EE9
:101B5E00000E246E25BE06D0F40E245C010E255810
:101B6E00D8B0120089843A0EE82EFED78994070E5B
:101B7E00236E430EE82EFED7232EFCD7244A252AA9
:101B8E00E9D70A0E21182210D8A41200000E276ED3
:101B9E00000E266E27BE06D0F40E265C010E2758C8
:101BAE00D8B0120089848D0EE82EFED700D089940D
:101BBE00060E236EF00EE82EFED7232EFCD700F075
:101BCE00264A272AE7D7000E266E22AE06D0216CB3
:101BDE00221ED8B0222A010E266E24AE04D0236C0B
:101BEE00241ED8B0242A23502410D8B418D0010EA5
:101BFE00256E04D0D89023362436252A24AEFAD763
:101C0E002350215C24502258D8A004D02350215EAA
:101C1E002450225AD89024322332252EF1D7265022
:101C2E00D8B404D0216C221ED8B0222A21C021F0B3
:101C3E0022C022F01200120E21182210D8A40DD0AC
:101C4E008B948B8400D08B948BA6FED78BB6FED74D
:101C5E00000E226E000E216E1200130E211822109D
:101C6E00D8A40DD08B988B8800D08B988BAAFED7DA
:101C7E008BBAFED7000E226E000E216E1200140ECD
:101C8E0021182210D8A412008B9C8B8C00D08B9C18
:101C9E008BAEFED78BBEFED7000E226E000E216ECF
:101CAE001200080E21182210D8A410D089B089B2C3
:101CBE000AD089908992210E236E760EE82EFED7D9
:101CCE00232EFCD700D0899089821200090E21188C
:101CDE002210D8A410D089A089A20AD08990899206
:101CEE00210E236E760EE82EFED7232EFCD700D0C3
:101CFE008980899212000D0E21182210D8A412008C
:101D0E00899089921200260E266E000E276E1DD027
:101D1E00250E2918D8B404D0295045EC10F015D052
:101D2E00000E286E04D0295045EC10F00ED024C0C1
:101D3E00F6FF25C0F7FF244A252A0800F5CF29F023
:101D4E002950000AD8B41200EED724C0F6FF25C0E1
:101D5E00F7FF244A252A0800F5CF29F02950D8B4D8
:101D6E001200D6D7060E066E000E076E1DD0250E7B
:101D7E000918D8B404D0095051EC10F015D0000E4B
:101D8E00086E04D0095051EC10F00ED004C0F6FFCE
:101D9E0005C0F7FF044A052A0800F5CF09F00950DF
:101DAE00000AD8B41200EED704C0F6FF05C0F7FF44
:101DBE00044A052A0800F5CF09F00950D8B41200DC
:101DCE00D6D7226E2250F00B216E8C500F0B8C6EDC
:101DDE0021508C108C6E8C96140EE82EFED700D0EF
:101DEE008C86140EE82EFED700D02238F00B226E11
:101DFE002250F00B216E8C500F0B8C6E21508C10DC
:101E0E008C6E8C96140EE82EFED700D08C86140E97
:101E1E00E82EFED700D01200026E0250F00B016EBB
:101E2E008C500F0B8C6E01508C108C6E8C96140E89
:101E3E00E82EFED700D08C86140EE82EFED700D0EA
:101E4E000238F00B026E0250F00B016E8C500F0B2D
:101E5E008C6E01508C108C6E8C96140EE82EFED764
:101E6E0000D08C86140EE82EFED700D01200310E54
:101E7E00246EB20EE82EFED7242EFCD700D0330EE1
:101E8E004BEC10F0320E4BEC10F0280E4BEC10F029
:101E9E000F0E4BEC10F0060E4BEC10F0010E4BEC4F
:101EAE0010F0310E246EB20EE82EFED7242EFCD783
:101EBE0000D01200000E2C6E2AAE06D0296C2A1EFF
:101ECE00D8B02A2A010E2C6E29C021F02AC022F089
:101EDE00236A8E0E246E2CC025F0B8EC0CF021C0B7
:101EEE0029F022C02AF023C02BF01200000E226E21
:101EFE00130E216E22EC0EF022BE0AD0225003E108
:101F0E002104D8A005D0000E246E010E236E1200FF
:101F1E00000E246E000E236E120031EC10F02AC05B
:101F2E0024F02BC025F08AEC0EF0C00E4BEC10F016
:101F3E002CC024F02DC025F08AEC0EF00C0E4BECCC
:101F4E0010F0120038EC10F00AC004F00BC005F0CF
:101F5E00B9EC0EF0C00E57EC10F00CC004F00DC032
:101F6E0005F0B9EC0EF00C0E57EC10F012000C0E42
:101F7E0021182210D8A402D08B8012000D0E211829
:101F8E002210D8A412008B90120000EE45F01A0E0B
:101F9E00EE6AE806FDE15F905F92000EF86E0001BA
:101FAE0079EF09F031EC10F0010E2A6E100E2B6E47
:101FBE00120E2C6E100E2D6E94EC0FF0120038ECEB
:101FCE0010F0010E0A6E100E0B6E120E0C6E100E2D
:101FDE000D6EA9EC0FF0120038EC10F0610E0A6EC7
:101FEE00100E0B6E770E0C6E100E0D6EA9EC0FF020
:101FFE00120038EC10F0230E0A6E100E0B6E550EFA
:10200E000C6E100E0D6EA9EC0FF0120038EC10F0E5
:10201E00340E0A6E100E0B6E6C0E0C6E100E0D6ED4
:10202E00A9EC0FF0120038EC10F0450E0A6E100EEF
:10203E000B6E540E0C6E100E0D6EA9EC0FF01200FE
:10204E008BA203D0236A232A01D0236A2350216E48
:10205E00226A1200010E4BEC10F0100E4BEC10F039
:10206E001200010E57EC10F0100E57EC10F012008B
:10207E0021B002D08C9001D08C801200236E8C8403
:10208E002350E8EC0EF01200236E8C942350E8ECF3
:10209E000EF01200036E8C84035013EC0FF012003E
:0E20AE00036E8C94035013EC0FF0120012001E
:020000040020DA
:08000000FFFFFFFFFFFFFFFF00
:020000040030CA
:0E000000FF491F1EFF8381FF0FC00FE00F405E
:00000001FF
