:0400000007EF00F016
:0A0008003E823FED08F02BEF0AF0F6
:1010000000313A53544152542031313A33313A3459
:101010003500323A4C4F4753202032322F30322F96
:10102000313700313A444F574E4C4F414420333A08
:1010300045534300313A5343524F4C4C444E2033B6
:101040003A455343005452414E5346455252494E3D
:10105000472E2E2E00323A44495350204C4F4753CE
:1010600000534F5254494E472E2E2E00323A5343CE
:0D107000524F4C4C555000303A34370000C0
:10107E000600FACF11F0FBCF12F0E9CF13F0EACF52
:10108E0014F0E1CF15F0E2CF16F0D9CF17F0DACF8A
:10109E0018F0F3CF19F0F4CF1AF0F6CF1BF0F7CF0C
:1010AE001CF0F8CF1DF0F5CF1EF0F0A011D081CFBF
:1010BE0010F0103A0F0E10160F0E101610501F6E65
:1010CE00206A1FC00EF020C00FF08DEC08F0F090DB
:1010DE001EC0F5FF1DC0F8FF1CC0F7FF1BC0F6FFBA
:1010EE001AC0F4FF19C0F3FF18C0DAFF17C0D9FFFA
:1010FE0016C0E2FF15C0E1FF14C0EAFF13C0E9FFFE
:10110E0012C0FBFF11C0FAFF3E921100020E0E1824
:10111E000F10D8A40CD0020E30183110D8B407D04E
:10112E0045EC0AF0000E2F6E030E2E6E1200030E0B
:10113E002E182F10D8A41AD00E500F10D8A40BD0E2
:10114E00000E316E020E306E52EC0AF0000E2F6E53
:10115E00040E2E6E12000E040F10D8A412005FECB7
:10116E000AF0000E2F6E050E2E6E1200050E2E18B2
:10117E002F10D8A412000E500F10D8A407D079EC5F
:10118E000AF0000E2F6E070E2E6E12000E040F10B8
:10119E00D8A412006CEC0AF0000E2F6E060E2E6E06
:1011AE001200000E926E000E946E000E956E9368F5
:1011BE00000E896E000E8A6E000E8B6EC168C6EC34
:1011CE0009F0F086F28E000E2F6E030E2E6E000EBC
:1011DE00316E010E306E38EC0AF0000E336E000EDA
:1011EE00326E000E376E000E366E000E356E000E2D
:1011FE00346E000E3D6E000E3C6E000E3B6E000E09
:10120E003A6E000E396E000E386EE9EC09F0FFD71B
:10121E00F29EF28EFDD7260E266E000E276E1DD084
:10122E00250E2918D8B404D0295094EC0AF015D004
:10123E00000E286E04D0295094EC0AF00ED024C073
:10124E00F6FF25C0F7FF244A252A0800F5CF29F01E
:10125E002950000AD8B41200EED724C0F6FF25C0DC
:10126E00F7FF244A252A0800F5CF29F02950D8B4D3
:10127E001200D6D7060E066E000E076E1DD0250E76
:10128E000918D8B404D00950A0EC0AF015D0000EFD
:10129E00086E04D00950A0EC0AF00ED004C0F6FF80
:1012AE0005C0F7FF044A052A0800F5CF09F00950DA
:1012BE00000AD8B41200EED704C0F6FF05C0F7FF3F
:1012CE00044A052A0800F5CF09F00950D8B41200D7
:1012DE00D6D7226E2250F00B216E8C500F0B8C6ED7
:1012EE0021508C108C6E8C96140EE82EFED700D0EA
:1012FE008C86140EE82EFED700D02238F00B226E0C
:10130E002250F00B216E8C500F0B8C6E21508C10D6
:10131E008C6E8C96140EE82EFED700D08C86140E92
:10132E00E82EFED700D01200026E0250F00B016EB6
:10133E008C500F0B8C6E01508C108C6E8C96140E84
:10134E00E82EFED700D08C86140EE82EFED700D0E5
:10135E000238F00B026E0250F00B016E8C500F0B28
:10136E008C6E01508C108C6E8C96140EE82EFED75F
:10137E0000D08C86140EE82EFED700D01200310E4F
:10138E00246EB20EE82EFED7242EFCD700D0330EDC
:10139E009AEC0AF0320E9AEC0AF0280E9AEC0AF049
:1013AE000F0E9AEC0AF0060E9AEC0AF0010E9AEC69
:1013BE000AF0310E246EB20EE82EFED7242EFCD784
:1013CE0000D012008B90000E226E000E216E22BEF7
:1013DE0004D0100E225CD8B012008B82530EE82E71
:1013EE00FED700F08B92530EE82EFED700F0214A66
:1013FE00222AEDD786EC0AF02AC024F02BC025F065
:10140E0012EC09F0C00E9AEC0AF02CC024F02DC09C
:10141E0025F012EC09F00C0E9AEC0AF012008DEC8D
:10142E000AF00AC004F00BC005F041EC09F0C00E42
:10143E00A6EC0AF00CC004F00DC005F041EC09F06A
:10144E000C0EA6EC0AF0120000EE2EF0100EEE6A54
:10145E00E806FDE13E903E92000EF86E0001D8EFD8
:10146E0008F086EC0AF0010E2A6E100E2B6E120E8C
:10147E002C6E100E2D6E01EC0AF012008DEC0AF09F
:10148E00010E0A6E100E0B6E120E0C6E100E0D6EFD
:10149E0016EC0AF012008DEC0AF0610E0A6E100EB8
:1014AE000B6E770E0C6E100E0D6E16EC0AF012000F
:1014BE008DEC0AF0230E0A6E100E0B6E550E0C6E8E
:1014CE00100E0D6E16EC0AF012008DEC0AF0340EB2
:1014DE000A6E100E0B6E6C0E0C6E100E0D6E16EC60
:1014EE000AF012008DEC0AF0450E0A6E100E0B6E0D
:1014FE00540E0C6E100E0D6E16EC0AF01200010E4C
:10150E009AEC0AF0100E9AEC0AF01200010EA6ECFC
:10151E000AF0100EA6EC0AF01200236E8C842350F3
:10152E0070EC09F01200236E8C94235070EC09F0CD
:10153E001200036E8C8403509BEC09F01200036EB4
:0A154E008C9403509BEC09F012008E
:020000040020DA
:08000000FFFFFFFFFFFFFFFF00
:020000040030CA
:0E000000FF491F1EFF8381FF0FC00FE00F405E
:00000001FF
